:100000000C9473030C94BA030C94BA030C94BA03C3
:100010000C94BA030C94BA030C94BA030C94BA036C
:100020000C94BA030C94BA030C9438280C940A2943
:100030000C94241E0C94BA030C94BA030C94BA03C7
:100040000C94BA030C94BA030C94BA030C94BA033C
:100050000C94BA030C948C1E0C94BA030C94BA033F
:100060000C94BA030C94BA030C94BA030C94BA031C
:100070000C94BA030C94BA030C94BA030C94BA030C
:100080000C94BA030C94BA030C94BA030C94BA03FC
:100090000C94BA030C94BA030C94BA030C94BA03EC
:1000A0000C94BA030C94BA030C94BA030D130D13F9
:1000B0003F133F138513A3131C151C15E5137A1466
:1000C0008B148B14EB14F4141C151515B015B01506
:1000D000C215C215B915C215C215C215B015B01595
:1000E000BE15C215C215BE1577299E29962A9E29CE
:1000F000962AEA290D2A962A642A732A0A002530AC
:10010000313662003A200025303258000A722F63DF
:100110002030313233343536373839414243444563
:10012000460A006D63703233303137206465617484
:100130007461636865642121210A006D6370323344
:100140003031372061747461636865642121210A4C
:10015000002D001E001F00200021002200290000A9
:100160005C230024002500260027002E002B00140D
:10017000001A00080015001700260227021C0018AC
:10018000000C001200130034002A000400160007BF
:100190000009000A00000000000B000D000E000F17
:1001A0000033002800E1001D001B000600190005B7
:1001B000002F00300011001000360037003800E535
:1001C000004A004D0035003100E30000000000004F
:1001D0000000005000510052004F00E4000000E019
:1001E00000E200390049004C00E2006500E3004BEA
:1001F000004E00E6002C00000000003A003B003CEE
:10020000003D003E00010001003F0040004100426F
:10021000004300440001001E021F022F0230023181
:10022000020100010052002400250026002502459D
:1002300000010020022102260227023500000000F2
:100240000051002100220023002E020100010022A3
:100250000223022F00300035020100010024021E9B
:10026000001F00200031000100DE5C0100010001E0
:10027000000100000000000000000001003700271E
:10028000002E0001000000CA5CC95C01000100C32F
:100290005C0100C25CCD5C01000100C65CC55C0075
:1002A0000001000100010001000100010001000146
:1002B0000001000100010001000100010001000136
:1002C000000100F000010001000100010001000137
:1002D00000010001000100010001000100F200F135
:1002E00000F3000100000000000100010001000116
:1002F000000100AE00010001000100010001000149
:10030000000100010001000100AC00AB0001000190
:1003100000010001000100F400F5000000000000F1
:10032000000000A900AA00A80001000100000001CF
:1003300000010001000100010001000100010001B5
:100340000001000100B600000044454255473A2034
:1003500064697361626C65642E0A004445425547C6
:100360003A20656E61626C65642E0A00556E6963A1
:100370006F646520696E707574206D6F646520739D
:10038000657420746F3A2025750A00556E69636F95
:10039000646520696E707574206D6F646520696E88
:1003A000697420746F3A2025750A006261636B6C72
:1003B0006967687420737465703A2025750A006255
:1003C00061636B6C696768742064697361626C65F2
:1003D0000A006261636B6C6967687420656E6162B4
:1003E0006C650A006261636B6C6967687420746F86
:1003F00067676C653A2025750A006261636B6C69FA
:100400006768742064656372656173653A20257559
:100410000A006261636B6C6967687420696E63725D
:10042000656173653A2025750A000A002530325847
:1004300020006B6579626F6172645F7265706F72C4
:10044000743A20000A0025303258006B6579626FDB
:100450006172645F7365745F6C65643A2000646503
:100460006C5F6B65795F6269743A2063616E2774B3
:100470002064656C3A20253032580A006164645F5C
:100480006B65795F6269743A2063616E27742061DD
:1004900064643A20253032580A00646F6E652E0A73
:1004A00000626F6F746D61676963207363616E3A98
:1004B000202E2E2E2000290A002575002F002575DC
:1004C000005D2800256400200025640020002564CC
:1004D0000020002564007C0025303258006D6F75C7
:1004E00073656B6579205B62746E7C782079207609
:1004F00020685D287265702F61636C293A205B006B
:100500005B735D004B6579626F6172642073746127
:1005100072742E0A005B575D005B535D005B525D99
:10052000005B445D005B435D000403300000000E8F
:100530000348006F00740044006F00780000001250
:10054000035A002E0050002E005A002E004F002E9D
:100550000000000403090409025B00030100A0FA83
:100560000904000001030101000921110100012219
:1005700040000705810308000A0904010001030087
:10058000000009211101000122C00007058203209B
:10059000000A090402000203000000092111010001
:1005A0000122220007058303200001070503032021
:1005B00000011201100100000008EDFE1DE1010024
:1005C000010203010631FF0974A101097515002616
:1005D000FF009520750881020976150026FF009519
:1005E0002075089102C005010902A10185020901D7
:1005F000A1000509190129051500250195057501B9
:1006000081029501750381010501093009311581C8
:10061000257F95027508810609381581257F95018A
:1006200075088106050C0A38021581257F9501752C
:10063000088106C0C005010980A10185031A810057
:100640002A8300160100260300950175108100C061
:10065000050C0901A10185041A01002A9C0216015A
:1006600000269C02950175108100C005010906A1B4
:10067000018505050719E029E7150025019508758D
:100680000181020507190029EF1500250195F07574
:100690000181020508190129059505750191029549
:1006A0000175039101C005010906A101050719E0C3
:1006B00029E7150025019508750181029501750846
:1006C00081010507190029FF150026FF0095067511
:1006D0000881000508190129059505750191029504
:1006E0000175039101C011241FBECFEFDAE0DEBF18
:1006F000CDBF04B603FE27C08091E9029091EA02C3
:10070000A091EB02B091EC028730904BA740B04B28
:10071000D1F41092E9021092EA021092EB021092C8
:10072000EC0214BE84B7877F84BF0FB6F894A895F7
:1007300080916000886180936000109260000FBE1D
:10074000E0E0F8E3099511E0A0E0B1E0E6E2F7E5CA
:1007500002C005900D92A438B107D9F722E0A4E8B1
:10076000B1E001C01D92A93EB207E1F70E945E25EB
:100770000C94912B0C940000FF93EF93E091840173
:10078000F0918501309709F00995EF91FF91089557
:10079000FC018591803011F0EFDFFBCF0895FF273A
:1007A000E0E230E247FF0CC0419597FF09C0EDE25F
:1007B0006095709580959095611D711D811D911DAD
:1007C00027FF02C0219530E350E2AA27660F771F6A
:1007D000881F991FAA1FA41710F0A41B63955A9590
:1007E000A9F7AA3008F0A95FA05DAF93F395611552
:1007F00071058105910541F7ED3211F4EF93F39501
:10080000F21718F43F93F395FBCF8F91B5DFFA956C
:10081000E1F70895E991F9918591803021F08532D1
:1008200019F0AADFF9CF089520E0E89455915532E8
:10083000C1F3503311F4689455915A3348F450532E
:1008400090F3220F022E220F220F200D250FF4CF3E
:100850000EF4219589919991533619F3533729F163
:10086000533559F1BC0188279927E8945C3621F467
:100870008991999168945591543639F446EF7EF0F8
:1008800077FF0DC08FEF9FEF0AC055374AE039F070
:10089000583540E121F0523642E009F00895FF93C7
:1008A000EF937DDFEF91FF91B7CFFF93EF93FC01C3
:1008B00081918030B9F360DFFBCFFF93EF9368DF66
:1008C000F1CFDF93CF93CDB7DEB72596A3DFCF91DE
:1008D000DF91089580B38C7080BB81B38C7081BB35
:1008E0000C94CD0684B1807F84B985B18F6085B9C1
:1008F0008AB1837F8AB98BB18C608BB93E98469A56
:100900000C94130708950C9482040C9482040E94A2
:100910006A040E947204EAEDF1E086E891E0119227
:100920001192DC012EE01D922150E9F70E9621E094
:100930008A3D9207A1F70C945B080E946A040E940A
:100940007204EAEDF1E011821082138212821582A4
:1009500014821782168211861086138612860895D5
:100960002EE0829FC0011124FC01EA57FE4F20E0D7
:1009700030E040E050E061E070E09081992319F0B0
:100980009150908309C0CB01022E02C0880F991F9D
:100990000A94E2F7482B592B2F5F3F4F31962E30A8
:1009A000310559F7CA010895CF932EE0629FB00137
:1009B000112420E030E0A1E0B0E0C5E0AD01022E5E
:1009C00002C0440F551F0A94E2F748235923452BD0
:1009D00031F0FB01E20FF31FEA57FE4FC0832F5F98
:1009E0003F4F2E30310551F7CF910895CF92DF92CE
:1009F000EF92FF920F931F93CF930E94EF068AED21
:100A0000E82E81E0F82EC0E0C33091F038F4C13018
:100A100091F0C23099F4859A8D9812C0C43029F0B3
:100A2000C53061F4809A88980BC0819A899808C073
:100A3000849A8C9805C0869A8E9802C0879A8F985F
:100A40008C2F0E94D10680EA8A95F1F78C2F0E94A4
:100A5000B0046C010E944907282F30E0369903C08A
:100A600000E810E002C000E010E04B9903C080E015
:100A700091E002C080E090E0082B192B4A9903C056
:100A800080E092E002C080E090E0082B192B1B99D7
:100A900003C040E054E002C040E050E0042B152BBE
:100AA0001A9903C060E078E002C060E070E0062BB5
:100AB000172B199903C080E090E102C080E090E01C
:100AC000082B192B189903C040E050E202C040E007
:100AD00050E0F70180819181042B152B022B132B01
:100AE000082719270C211D21082719276C2F80277B
:100AF00091270E94D404F701019311937F010E9472
:100B00006A04CF5FC63009F07FCF0E94670881E09A
:100B1000CF911F910F91FF90EF90DF90CF900895AC
:100B2000E82FF0E0EE0FFF1FE652FE4F808191812B
:100B30000895CF92DF92EF92FF920F931F93CF937E
:100B4000DF938CE091E00E94C8038AEDE82E81E0FB
:100B5000F82EC0E0D0E097E0C92E91E0D92E0EEF3C
:100B600010E0DF93CF93DF92CF920E94610484E084
:100B700091E00E94C803F701819191917F010E9449
:100B80004C1C9F938F931F930F930E9461048CEFD3
:100B900090E00E94C80321968DB79EB708960FB6C5
:100BA000F8949EBF0FBE8DBFC630D105D1F6DF9140
:100BB000CF911F910F91FF90EF90DF90CF9008950C
:100BC0001092B9008CE08093B8000895EF92FF92E4
:100BD0000F931F93CF93DF93182FEB011092BC005C
:100BE00084EA8093BC000E94561E7C018091BC0068
:100BF00087FD0EC0CF3F8FEFD807C1F30E94561E6E
:100C00008E199F098C179D0788F38EEF9FEF2EC0DA
:100C10008091B900887F883041F08091B900887F49
:100C2000803119F08FEF9FEF21C01093BB0084E853
:100C30008093BC000E94561E8C018091BC0087FDF1
:100C40000CC0CF3F8FEFD807C1F30E94561E801B08
:100C5000910B8C179D0788F3D8CF8091B900887FBE
:100C6000883111F08034F1F680E090E0DF91CF918F
:100C70001F910F91FF90EF9008950F931F93CF93C3
:100C8000DF93EB018093BB0084E88093BC000E945B
:100C9000561E8C018091BC0087FD0EC0CF3F8FEFA8
:100CA000D807C1F30E94561E801B910B8C179D071D
:100CB00088F38EEF9FEF0CC02091B900287F81E070
:100CC00090E0283211F480E090E0919581959109AF
:100CD000DF91CF911F910F9108950F931F93CF93A1
:100CE000DF93EC0184E88093BC000E94561E8C01C7
:100CF0008091BC0087FD0EC0CF3F8FEFD807C1F3B6
:100D00000E94561E801B910B8C179D0788F38EEF57
:100D10009FEF03C08091BB0090E0DF91CF911F91C6
:100D20000F91089584E98093BC0008951092E60124
:100D30000E94E0052FEF83ED90E32150804090402A
:100D4000E1F700C0000080E008951F93CF93DF9388
:100D50009091E6019923E1F0D62F182F64E670E018
:100D600080E40E94E605C82F81110EC064E670E0A1
:100D7000812F0E943D06C82F811106C064E670E0F5
:100D80008D2F0E943D06C82F0E9492068C2F01C015
:100D900080E0DF91CF911F9108956FE381E00C9483
:100DA000A50661E070E001C0660F8A95EAF76095DC
:100DB00081E00C94A5066FE780E00E94A5066FE72E
:100DC00082E00E94A5066FE78CE00E94A5066FEF07
:100DD00081E00E94A50660EC83E10C94A50664E620
:100DE00070E080E40E94E605811110C00E94920626
:100DF0008091E601811116C081E08093E6010E9496
:100E0000DB060E949E158BE391E00AC08091E6010B
:100E1000882341F01092E6010E949E1583E291E042
:100E20000C94C80308950E9496060C94EF060F9345
:100E30001F93CF93DF939091E601992321F18B01CA
:100E4000D82F64E670E080E40E94E605C82F811187
:100E500016C064E670E08D2F0E943D06C82F8111F8
:100E60000EC064E670E081E40E94E605C82F81119F
:100E700006C084E690E00E946D06F80180830E941F
:100E800092068C2F01C080E0DF91CF911F910F91CE
:100E90000895CF93DF931F92CDB7DEB71982BE01BD
:100EA0006F5F7F4F82E10E94170789810F90DF916A
:100EB000CF910895279A2F98259A2D9A269A2E9A9F
:100EC000249A2C9A259A2D982FEF80E792E02150B2
:100ED00080409040E1F700C00000269A2E982FEF46
:100EE00080E792E0215080409040E1F700C0000090
:100EF000249A2C982FEF80E792E021508040904078
:100F0000E1F700C00000259A2D9A2FEF80E792E0CC
:100F1000215080409040E1F700C00000269A2E9AB0
:100F20002FEF80E792E0215080409040E1F700C031
:100F30000000249A2C9A279A2F9A259A2D98269A5F
:100F40002E98249A2C982FE782E490E1215080403B
:100F50009040E1F700C00000279A2F98259A2D9A1B
:100F6000269A2E9A249A2C9A08950E945A070C9435
:100F700083049C013A9521153F4138F5DC01AA27ED
:100F8000B270AC01442754709C012227387094FF42
:100F90000FC090FF02C080E101C080E0AB2B09F0E0
:100FA0008062452B09F08064232B69F080680BC0B8
:100FB000892F8170AB2B09F08260452B09F084608A
:100FC000232B09F08860FB0109940895CF93DF93E8
:100FD000EC01805E9109089710F0209719F46DECF0
:100FE00072E102C066E775E1CE010E94B9078C2F5D
:100FF000DF91CF910C94C111CF93DF93EC010E944C
:101000005212CE01805E9109089710F0209719F4D2
:1010100064ED72E102C06DE775E1CE01DF91CF9121
:101020000C94B907CF93DF93EC010E94E607CE0141
:10103000DF91CF910C94FC0781E0089581E0089541
:101040000C941E081F93CF93DF9300D000D01F9203
:10105000CDB7DEB749835A836B832091FE01898126
:101060009A81211112C0662349F00E94001B182F9B
:10107000682F89819A810E94A91A03C00E94D41AFC
:10108000182F69817A81812F04C00E94001B698119
:101090007A810F900F900F900F900F90DF91CF916A
:1010A0001F910C94F908FC01408151816281738188
:1010B00084810C9422080E945F1C811102C00E944E
:1010C000121D0E94CE0D0E944D0B0C94B5070C947E
:1010D0008504282F2F7041F0822F90E02A3010F4E1
:1010E0004D9608950697089587E290E00895089533
:1010F0000C94770881E008950C947A08CF93C82F58
:101100000E9478088C2F0E947C08CF910895089542
:101110000E949E150E9487082FEF84E39CE02150D7
:1011200080409040E1F700C000000C94B21E0F9385
:101130001F93CF93DF93EC010E9453088C01BE01F3
:101140000E942008882309F449C0BE01C8010E94FA
:10115000EA0B882309F442C0BE01C8010E94540E64
:101160008823E1F1BE01C8010E94950E8823B1F1E8
:10117000BE01C8010E94C00F882381F18A818823A3
:1011800031F101308CE5180751F00E3D8CE5180760
:10119000D9F001151C45D9F40E9488081FC0809120
:1011A0009B02C82FC095C170C0FB80F980939B0241
:1011B000CC2329F08BE593E00E94C8030FC089E49B
:1011C00093E00E94C8030BC00E94121D07C0CE010D
:1011D000DF91CF911F910F910C941C08C0E08C2FD0
:1011E000DF91CF911F910F91089580E090E00895D5
:1011F000089524E5829FC0011124FC012EE0729F16
:10120000E00DF11D1124E60FF11DEE0FFF1FEF5A47
:10121000FE4F859194910895880F991FFC01E45920
:10122000FC4F859194910895CF93DF930E94F90824
:101230000E94610AEC01811521E5920708F042C085
:10124000811540E5940708F0D6C0883E910500F569
:10125000803E910508F031C1883A910570F4853AD5
:10126000910508F0A2C08130910509F426C108F467
:1012700022C1049708F021C11EC18F3B910508F4DB
:101280009CC0803C910508F416C1805C9109A2C005
:10129000C11580E3D80780F4C11520E2D20708F019
:1012A00097C0C03FD10508F406C1CF3FD10511F06A
:1012B00008F003C1D06501C1C11540E4D40708F0AE
:1012C00097C08CC0C11589E5D80760F5C11528E520
:1012D000D20708F0DCC0C11544E5D40778F4C11585
:1012E00083E5D80708F0B8C0C11522E5D20708F099
:1012F0009DC0DC2FCC27C16FD06ADFC0C11545E58A
:10130000D40708F4BFC0C11586E5D80708F0D3C0DC
:101310008C2F0E94F50A8F71C82FD0E0DC2FCC27CC
:10132000D062CBC0CD3B2CE5D20709F4BBC0E0F4C2
:10133000CB3B8CE5D80709F4AFC008F0B0C0C115AD
:101340004AE5D40708F0B7C08C2F8F700E94F50AC9
:1013500094E0D695C7959A95E1F7CF70D0E0DC2F51
:10136000CC27D069C82BA9C0C03C8CE5D80709F4AC
:101370009FC060F4CE3B4CE5D40709F496C0CF3B48
:10138000DC4509F098C0C0E0D2ED97C0CE01905680
:101390008115904208F08FC08D2F8F710E94F50A41
:1013A000DD27D0628F71D82B88C0C55AD0E0C05CD1
:1013B000DE4FC881D0E0D06480C0C85AD0E0CC0FE6
:1013C000DD1FCE5EDE4F0990D881C02DD46475C07C
:1013D000CE019F700E940C09EC016FC0CE019927CD
:1013E000D3FF03C0EC01D86C68C0EC01D06C65C0C1
:1013F000DF70D06A62C074E0969587957A95E1F7C0
:1014000083709C2F937021E030E002C0220F331FC5
:101410009A95E2F73C68382BCF70C695C69540E2A6
:10142000C49FE0011124C22BD32B47C0CE0183708F
:10143000992721E030E002C0220F331F8A95E2F79E
:101440008C2F8695869540E2849FC0011124E90186
:10145000C82BD92BDC6831C0CE018370992721E0DD
:1014600030E002C0220F331F8A95E2F78C2F869559
:10147000869540E2849FC0011124E901C82BD92B35
:10148000DA681BC0DC2FCC27C46FD06A16C0DC2FF3
:10149000CC27C06FD06A11C0C0E0D4ED0EC0C0E050
:1014A000D5ED0BC0C0E0D1ED08C0C0E0D0ED05C067
:1014B000C0E0D3ED02C0C0E0D0E0CE01DF91CF911B
:1014C00008958238910569F1B0F48133910509F4EA
:1014D0006DC048F48932910509F463C08A329105E0
:1014E00009F469C008958533910509F455C089331D
:1014F0009105B9F00895833E910569F138F4803E75
:101500009105B1F0823E910509F10895863E91055D
:10151000A9F1873E9105B9F1843E910509F064C0B7
:1015200023C02091DA0220FD4FC021FD4DC0089557
:101530008091DA0280FD44C08091DB0280FF44C0CC
:101540008091DA0284FD42C083EE4DC08091DA02C0
:1015500082FF38C0F5CF8091DA0282FD33C08091DE
:10156000DB0280FD31C0ECCF8091DB0281FF32C015
:101570008091DA0284FD2AC087EE35C08091DA02BC
:1015800083FF26C0F5CF8091DA0283FD21C08091D0
:10159000DB0281FD1FC0ECCF8091DA0285FD1CC00B
:1015A0001DC08091DA0285FD19C016C08091DA0253
:1015B00086FD16C017C08091DA0286FD13C010C0E8
:1015C00089E311C082EE0FC080EE0DC080E00BC039
:1015D00086EE09C084EE07C089E205C085E303C03A
:1015E0008AE201C081E390E008959091DA0292FFCF
:1015F0000DC0282F2871283019F4877F846006C019
:10160000282F2471243011F48B7F886093FF0DC044
:10161000282F2871283119F4877E846106C0282F6D
:101620002471243111F48B7E88612091DB0220FF2C
:101630000DC0382F3871383019F4877F816006C0AB
:10164000382F3171313011F48E7F886021FF0DC049
:10165000282F2871283119F4877E816106C0282F30
:101660002171213111F48E7E886194FD877E089569
:10167000CF93DF9397FF0DC0FB012281222349F016
:10168000EC010E948C0BCE019F770E94CD0B0E9433
:10169000B60B81E0DF91CF9108958CE090E00E943D
:1016A0004F2B90E0A0E0B0E08093CE029093CF0269
:1016B000A093D002B093D10280919B0280FF0EC014
:1016C0008091CE021F928F938BE893E09F938F932C
:1016D0000E9461040F900F900F900F9008956091F9
:1016E000CE028CE090E00C945D2B8093CE020E94A1
:1016F0006F0B80919B0280FF0EC08091CE021F92E3
:101700008F938CE693E09F938F930E9461040F90D8
:101710000F900F900F9008950E94811B8093D2022A
:101720000E94941B8091CE02813071F048F082308B
:1017300081F08430A1F486EE0E94BA1288E10DC0D7
:1017400082EE0E94C1110BC088E193E00E94120852
:1017500006C082EE0E94C11187E50E94BA128FE393
:101760009CE90197F1F700C0000008958091CE0236
:10177000813039F040F0823031F0843051F488E229
:1017800006C08CE204C082EE0E94521202C00E9487
:10179000BA128091D2020C94911B0F931F93CF9396
:1017A000DF938C01CCE0D0E0C8010C2E02C09695EE
:1017B00087950A94E2F78F700E9469080E94BA1216
:1017C0002497CC3F8FEFD80779F7DF91CF911F9106
:1017D0000F9108950F931F93CF93DF93EC018B012B
:1017E000FB018281882301F1C33EFCE5DF07B9F0EC
:1017F00050F4C13EECE5DE0781F0C23EFCE5DF07B8
:1018000099F481E00FC0C43E8CE5D80751F0C53E85
:10181000ECE5DE0749F484E005C080E003C082E027
:1018200001C083E00E94750BB801CE01DF91CF911A
:101830001F910F910C94380B0E945F1C811102C004
:101840000E94121D0E949A1C8093D302282F269575
:101850002695269530E02430310524F08770886184
:101860008093D3028091D30280FF04C08695869531
:10187000869501C080E00C94730D2091D302822FD5
:10188000869586958695482F50E04330510554F44F
:101890008F5F982F990F990F990F822F8770892B3F
:1018A0008093D3028091D30281608093D3020E94FF
:1018B0009E1C80919B0280FF11C08091D30286956F
:1018C000869586951F928F9382E194E09F938F93E4
:1018D0000E9461040F900F900F900F908091D3029F
:1018E0008695869586950C94730D8091D302982FDA
:1018F000969596959695A1F0915E990F990F990FEF
:101900008770892B8093D302887F91E009F490E05F
:101910008091D30290FB80F98093D3020E949E1C99
:1019200080919B0280FF11C08091D302869586959D
:1019300086951F928F938AEF93E09F938F930E94D7
:1019400061040F900F900F900F908091D3028695B5
:10195000869586950C94730D8091D30280FD1FC0EF
:1019600081608093D302813019F489E08093D3029F
:101970008091D3020E949E1C80919B0280FF08C030
:1019800082ED93E09F938F930E9461040F900F90DC
:101990008091D3028695869586950C94730D089553
:1019A0008091D30280FF14C08E7F8093D3020E9467
:1019B0009E1C80919B0280FF08C08FEB93E09F9359
:1019C0008F930E9461040F900F9080E00C94730D30
:1019D0000895CF93C091D302C17080919B0280FF84
:1019E0000CC01F92CF9384EE93E09F938F930E943D
:1019F00061040F900F900F900F90CC2319F0CF91AE
:101A00000C94D00CCF910C94AC0C9091D302892FF4
:101A10008695869586958F5F8F719770843038F4A0
:101A2000880F880F880F892B8093D30202C0909370
:101A3000D3028091D302887F91E009F490E08091F5
:101A4000D30290FB80F98093D3020E949E1C809168
:101A50009B0280FF11C08091D30286958695869562
:101A60001F928F938BEA93E09F938F930E94610460
:101A70000F900F900F900F908091D30286958695CE
:101A800086950C94730D843008F083E09091D30216
:101A90009770282F220F220F220F922B9093D302A0
:101AA000987F21E009F420E09091D30220FB90F987
:101AB0009093D3020C94730D0E94430D8091D30236
:101AC0000C949E1CE82FE295EF70F0E032A1282FD5
:101AD0002F7081E090E001C0880F2A95EAF7809589
:101AE000832382A30895CF92DF92EF92FF928430F6
:101AF00030F4811105C090918000977F04C083E08D
:101B000090918000986090938000282F30E0AFEF94
:101B1000BFEF0E94352B23E030E040E050E00E9410
:101B20000D2BC9012C3764E1360728F469E070E019
:101B30000E94E52A29C0DA01C9018A50974DAF4FAA
:101B4000BF4F6627782F892F9A2F25EF38E241E083
:101B500050E00E940D2B69017A01CA01B9010E946F
:101B6000C92A9B01AC01C701B6010E94C92ABB2743
:101B7000A92F982F872F009721E0A207B10511F018
:101B8000BC0102C06FEF7FEF70938D0060938C00FB
:101B9000FF90EF90DF90CF9008950895279A87E304
:101BA0000E94620D8AE08093800089E18093810029
:101BB0008FEF9FEF90938700809386000C941C0C0E
:101BC0000F931F93CF93DF93C62FD42F122FFC01B7
:101BD00082818823C9F06093E9010E94561E909388
:101BE000E8018093E70180E28C0F883008F057C04D
:101BF000C77081E001C0880FCA95EAF7DF91CF91E5
:101C00001F910F910C94CD128091E901681330C09F
:101C10008091E7019091E8010E94621E883C910545
:101C200038F500E20D0FCD17B9F080E28C0F883047
:101C300040F4C77081E001C0880FCA95EAF70E949E
:101C4000D412083028F581E09D2F977001C0880FCD
:101C50009A95EAF70E94CD12812F0E94BA1208309D
:101C6000F0F4D77081E001C0880FDA95EAF70AC076
:101C700080E28C0F883098F4C77081E001C0880F33
:101C8000CA95EAF7DF91CF911F910F910C94D4126E
:101C9000812FDF91CF911F910F910C94BA12DF9198
:101CA000CF911F910F9108959C01CB01233F4CE5EB
:101CB0003407F9F078F4283DFCE53F07B9F0293DF9
:101CC0004CE5340711F1273D3C4531F526E241EE64
:101CD00061EE1EC0253FFCE53F0799F070F0263FFE
:101CE0003C45D1F427E245EE66EE12C027E245EE10
:101CF0000EC026E241EE60EE0BC027E245EE64EE38
:101D000007C026E241EE62EE03C028E241E065EE44
:101D10000E94E00D80E00895FC018281882319F083
:101D20001092E901089581E00895CF93DF93EC01CB
:101D3000FB018281882309F41FC1C230FCE5DF0763
:101D400008F41BC1C6319CE5D90738F09E012A5F13
:101D50003C452930310508F010C10E947C1C90934D
:101D6000DB028093DA02C031ECE5DE0709F4C3C080
:101D700008F041C0C8308CE5D80709F49AC0F0F4E7
:101D8000C430ECE5DE0709F487C068F4C2308CE5A6
:101D9000D80709F477C0C330DC4509F0E3C080916F
:101DA000DA02826076C0C630ECE5DE0709F46EC068
:101DB00008F07BC08091DA0288606BC0CC308CE583
:101DC000D80709F485C068F4CA30ECE5DE0709F4E9
:101DD00074C008F079C00E949E158091DA02806874
:101DE00058C0CE308CE5D80709F476C008F07FC023
:101DF0008091DA028BC0CB3FECE5DE0709F44FC0DF
:101E000018F5C3318CE5D80709F47DC078F4C131E9
:101E1000ECE5DE0709F473C0C231DC4509F0A2C06D
:101E20000E949E158091DA028F7733C0C5318CE510
:101E3000D80709F472C008F486C0CA3FDC4509F02F
:101E400091C08091DB023EC0CF3FFCE5DF0709F483
:101E50005FC058F4CD3F9CE5D90709F444C008F4AD
:101E60003FC08091DB0282602DC0C130FDE5DF07FD
:101E700009F475C008F45DC0C230DD4509F072C0D8
:101E800080E06EC08091DA02816003C08091DA0246
:101E900080618093DA0266C08091DA0211C080917D
:101EA000DB0282608093DB025DC08091DA02806297
:101EB000F0CF8091DA028064ECCF8091DA02886002
:101EC0008460E7CF8160EECF8091DA028E7FE1CF30
:101ED0008091DA028D7FDDCF8091DA02877FD9CFC2
:101EE0008091DB0218C08091DB028D7FDBCF809177
:101EF000DA028F7ECECF8091DA028F7DCACF8091B9
:101F0000DA028F7BC6CF8091DA02877F8B7FC1CFC9
:101F10008091DB028D7F8E7FC5CF8091DA0282FBBC
:101F2000222720F991E0922790FB82F990FB83F918
:101F3000B0CF8091DB02982F909591708E7F892B86
:101F400090FB81F9AFCF0E949E158091DA0287FB4A
:101F5000222720F991E0922790FB87F99ACF81E020
:101F60000E94141D8091DA029091DB020E948D1C68
:101F70000E949E1580E001C081E0DF91CF9108951D
:101F8000CF93DF9386319C4541F5EB010E94811B85
:101F9000982F8A812091000130910101882379F0E6
:101FA0009A7A81E009F480E08093EA01911102C0FD
:101FB00069E201C065E3C9010E94A11D0AC08091C8
:101FC000EA01811102C069E201C065E3C9010E9412
:101FD000AC1D0E94D21B80E001C081E0DF91CF9157
:101FE00008959093F0018093EF010895E091EF013F
:101FF000F091F001309721F00190F081E02D0994EB
:1020000080E00895EF92FF921F93CF93DF93FC013E
:10201000A091EF01B091F001109709F442C08091B6
:102020001101882341F08091DA0287FF04C080818A
:10203000818385E08083EF011296ED91FC911397E7
:10204000CE01099580919B0282FF2BC080FF04C0C6
:1020500082E394E00E94C80318E08CE2E82E84E05A
:10206000F82E80919B0280FF0BC088811F928F9376
:10207000FF92EF920E9461040F900F900F900F90CB
:10208000115021961111EDCF80919B0280FF09C064
:102090008AE294E0DF91CF911F91FF90EF900C9432
:1020A000C803DF91CF911F91FF90EF900895E091C9
:1020B000EF01F091F001309739F022E0DC012C9330
:1020C0000480F581E02D099408952091ED0130916F
:1020D000EE012817390771F09093EE018093ED011E
:1020E000E091EF01F091F001309721F00680F78147
:1020F000E02D099408952091EB013091EC0128170F
:10210000390771F09093EC018093EB01E091EF01BE
:10211000F091F001309721F00084F185E02D0994D1
:10212000089585B7806885BF85B7806885BF0895A5
:1021300008950C9498100C9499100C9498100C9489
:1021400098100E9491100E949D100C949B1081E0A9
:1021500008950E944D1E0E9487040E94221F0E9423
:102160001C0C0C949F10CF93C82F80919B0282FF70
:102170001EC080FF04C08BE494E00E94C8038091DD
:102180009B0280FF0CC01F92CF9386E494E09F9344
:102190008F930E9461040F900F900F900F90809189
:1021A0009B0280FF04C084E494E00E94C8038C2F4B
:1021B000CF910C947E087F928F929F92AF92BF92A4
:1021C000CF92DF92EF92FF920F931F93CF93DF9303
:1021D000CDB7DEB72A970FB6F894DEBF0FBECDBFDE
:1021E0000E94F6040E94A710811111C08FEF89830D
:1021F0008A831B820E94561E8160782F9D838C8368
:1022000049815A816B818D810E948D114FC042EFAF
:10221000A42E41E0B42E00E010E0702E802F0E942A
:1022200090056C01F501819091905F0188269926B7
:102230008114910431F40F5F1F4F0630110569F7C7
:10224000D5CF80919B0281FD0E94990580E0EE240C
:10225000E394F12C94012E213F21232B09F18E834D
:102260007F82CE20DF2081E0CD2809F480E08887BE
:102270000E94561E8160782F9A8789874E815F81E0
:1022800068858A850E948D11000F111FF801EE509C
:10229000FE4F80819181E826F926F182E08206C016
:1022A0008F5FEE0CFF1C8E30A9F6C5CF0E94CD0DBE
:1022B0000E9460220E94F60F9091F1018917C9F0E7
:1022C0000E94F60F8093F1012A960FB6F894DEBFB4
:1022D0000FBECDBFDF91CF911F910F91FF90EF9077
:1022E000DF90CF90BF90AF909F908F907F900C9495
:1022F000B3102A960FB6F894DEBF0FBECDBFDF91A4
:10230000CF911F910F91FF90EF90DF90CF90BF90F2
:10231000AF909F908F907F900895CF93DF93CDB72C
:10232000DEB72B970FB6F894DEBF0FBECDBF4F833D
:10233000588769877A878B87DE01119686E0FD01D1
:1023400011928A95E9F785E0FE01379601900D928A
:102350008A95E1F749815A816B817C818D819E81CB
:102360000E946E182B960FB6F894DEBF0FBECDBF3D
:10237000DF91CF910895FC01808191810E94421BE1
:102380000895882309F48DC08238C1F40E94F60FA5
:1023900081FD87C069E380910001909101010E9455
:1023A000A11D0E94D21B2FEF81EE94E021508040AE
:1023B0009040E1F700C0000069E319C08338F9F4E8
:1023C0000E94F60F80FD6DC063E580910001909141
:1023D00001010E94A11D0E94D21B2FEF81EE94E00B
:1023E000215080409040E1F700C0000063E58091FB
:1023F0000001909101010E94AC1D0C94D21B843805
:10240000C1F40E94F60F82FD4CC067E48091000188
:10241000909101010E94A11D0E94D21B2FEF81EE1D
:1024200094E0215080409040E1F700C0000067E454
:10243000DECF9CEF980F913A40F4682F8091000115
:10244000909101010E94A11DD8CF90E2980F983081
:1024500050F4877091E001C0990F8A95EAF7892FAF
:102460000E94841BCACFEBE5E80FE33038F4F0E0BC
:10247000EF58FE4F808190E00C946510E8E5E80F7E
:10248000E73148F4F0E0EE0FFF1FED5BFE4F808177
:1024900091810C947B10803F20F00E94E6200C94E8
:1024A000D3210895882309F464C0823879F40E9406
:1024B000F60F81FF5EC069E38091000190910101F8
:1024C0000E94A11D0E94D21B69E310C08338B1F4A1
:1024D0000E94F60F80FF4DC063E58091000190914E
:1024E00001010E94A11D0E94D21B63E580910001A1
:1024F000909101010E94AC1D0C94D21B843879F498
:102500000E94F60F82FF35C067E480910001909130
:1025100001010E94A11D0E94D21B67E4E7CF9CEF3E
:10252000980F913A10F4682FE1CF90E2980F98300D
:1025300050F4877091E001C0990F8A95EAF7892FCE
:102540000E948A1BD9CF9BE5980F933020F480E03E
:1025500090E00C94651098E5980F973120F480E096
:1025600090E00C947B10803F20F00E944E210C9450
:10257000D3210895CF93C82F0E94C111C93349F4C4
:102580002FEF87EE93E0215080409040E1F700C0AC
:1025900000008C2FCF910C945212882321F00E94BE
:1025A000841B0C94D21B0895882321F00E948A1B5F
:1025B0000C94D21B0895CF92DF92EF92FF920F936B
:1025C0001F93CF93DF937C01062FC72FFC0115814A
:1025D00012951F70D281D1110E94A41B0E947A1BF8
:1025E000882379F0DD2369F080E2800F883048F09D
:1025F00082E00E941C1C0E947A1B91E0D82ED926F2
:1026000001C0D12CCC2EC2948FE0C8228C2D90E03A
:10261000FC01EA5AFF4F0C942F2B8C2F807FCF7038
:10262000882311F0C295C07FDD2399F0CC2309F4F3
:10263000BDC180E2800F883010F0011104C08C2FE2
:102640000E94841B03C08C2F0E94971B0E94D21BE8
:10265000ADC1802F0E945212CC2309F4EDC180E25B
:10266000800F883010F0011104C08C2F0E948A1B4B
:1026700003C08C2F0E949D1B0E94D21BDDC18C2F9A
:10268000807FCF70803211F0C295C07F002319F097
:102690000130C9F021C0DD2371F0112341F0113068
:1026A00031F40E94B71B8C2B0E94BF1BC5C10E9436
:1026B000B71B8C2B16C0112319F0113009F4BCC1C3
:1026C0000E94C81B1EC0DD2321F0123008F0B4C1E7
:1026D00007C01111B1C115C0DD2331F0111166C160
:1026E0008C2F0E94CD12A8C1112359F0093309F093
:1026F0006EC1FFEF27EE83E0F15020408040E1F70C
:1027000064C18C2F0E94D41297C18C2F8695869518
:10271000837019F0813061F08FC1DD2321F0802FAB
:102720009C2F937002C080E090E00E9465108CC1E5
:10273000DD2321F0802F9C2F937002C080E090E079
:102740000E947B1081C1DD23F9F0053F51F0063F67
:1027500071F0043FA9F48091D4029091D502816078
:102760000BC08091D4029091D502826005C0809107
:10277000D4029091D50284609093D5028093D402C4
:10278000802F0E94E6201EC0053F51F0063F71F0E9
:10279000043FA9F48091D4029091D5028E7F0BC0A2
:1027A0008091D4029091D5028D7F05C08091D40292
:1027B0009091D5028B7F9093D5028093D402802F85
:1027C0000E944E210E94D3213FC18C2F837009F0BB
:1027D00045C0D11135C1402F429546954770440FF1
:1027E000440F602F6F70862F90E0A0E0B0E0042EC1
:1027F00004C0880F991FAA1FBB1F0A94D2F704FFB9
:1028000010C00FE010E020E030E004C0000F111F06
:10281000221F331F4A95D2F70095109520953095C9
:1028200003C000E010E09801C695C695C370BC01D6
:10283000CD01602B712B822B932BC23049F058F4C1
:10284000C13019F00E94BF19FBC00E94AD19F8C039
:102850000E94D119F5C00E94AB19F2C0DD2319F016
:102860008C2F817001C08695882309F4E9C0402F20
:10287000429546954770440F440F602F6F70862F26
:1028800090E0A0E0B0E0042E04C0880F991FAA1FBA
:10289000BB1F0A94D2F704FF10C00FE010E020E045
:1028A00030E004C0000F111F221F331F4A95D2F7DA
:1028B000009510952095309503C000E010E0980138
:1028C000C695C695C370BC01CD01602B712B822BC0
:1028D000932BC23049F058F4C13019F00E94841A89
:1028E000AFC00E94721AACC00E94961AA9C00E9482
:1028F000E519A6C0CF70DD2339F08C2F0E940B1A8A
:10290000802F0E94CD129CC0802F0E94D4128C2F49
:102910000E942C1A95C0023FF9F028F4003F41F0C4
:10292000013F99F03FC0033FF1F0043F31F13AC05D
:10293000DD2339F0111180C08C2F8F710E94511A44
:102940007BC0123008F078C0F7CFDD2339F08C2F30
:102950008F710E940B1A70C0DD23C9F38C2F8F7109
:102960000E942C1A69C0DD2329F08C2F8F710E94E0
:10297000F61962C00E94F1195FC0DD2349F0CF71E2
:102980008C2F0E940B1A63E08C2F0E94071C54C0EE
:1029900081E00E941C1C123008F44EC082E00E94AC
:1029A0001C1C4AC0DD2331F0112389F2802F0E94C4
:1029B000C11142C0112391F2093349F49FEFE7EEB0
:1029C000F3E09150E040F040E1F700C00000802FBC
:1029D0000E94521231C04C2F4F70602FC7010E94CD
:1029E000F5080E941C1930C0D1112EC0CF70C23022
:1029F00091F038F4CC2361F0C130F1F40E94750CF1
:102A000023C0C43071F050F0C530B1F480E00AC08A
:102A10000E943D0C19C00E94E90C16C00E94050DD1
:102A200013C083E00E945C0D0FC04C2F4F70602FCD
:102A3000C7010E94F80808C088EF8C0D843020F48C
:102A40000E94F60F0E947E08DD20C9F00E94761BCE
:102A500080FD15C0F70112820E94701B0E940B1AA4
:102A6000C7010E9448150E94701BDF91CF911F91F2
:102A70000F91FF90EF90DF90CF900C942C1ADF9184
:102A8000CF911F910F91FF90EF90DF90CF9008951D
:102A90000F931F93CF93DF93EC01988189812B8152
:102AA0003C81232B31F08F3F31F481E09F3F19F4BB
:102AB00003C081E001C080E080FD13C0CE010E9410
:102AC0009708882371F0688179818A810E944D1B63
:102AD0008C010E94A81A0E949919B801CE010E9487
:102AE000DB12DF91CF911F910F910895882321F080
:102AF0000E94971B0C94D21B0895882321F00E94FA
:102B00009D1B0C94D21B08950E94A41B0E94B41B11
:102B10000E94D21B0E94FB220E94D32180E090E001
:102B20000E94651080E090E00C947B108091000181
:102B3000909101010E94B71D0C9484150E94941B72
:102B40000C949615E92FE295EF704E2F50E0FA01A4
:102B50003297EE30F105B0F4EA59FF4F0C942F2B69
:102B6000803F91F018F4883E68F40EC0843F51F421
:102B70000BC0883E48F0813F29F406C093FB8827AC
:102B800080F9089580E0089581E008950E94421B35
:102B90000E94A2150895CF93DF9300D000D01F921A
:102BA000CDB7DEB70F900F900F900F900F90DF9181
:102BB000CF910895CF93DF9300D000D000D0CDB750
:102BC000DEB726960FB6F894DEBF0FBECDBFDF91FD
:102BD000CF9108951F93CF93DF93C091FF0116E02B
:102BE00080910002C81799F0D0E01C9FF0011D9F52
:102BF000F00D1124EF5FFD4F40815181628173819F
:102C0000848195810E94DA152196C770E9CFDF9102
:102C1000CF911F91089540913102509132026091FD
:102C200033027091340280913502909136020C94F7
:102C3000DA15CF938091360282958F7009F05FC0CC
:102C400080913302882309F45AC08091FF01B0912A
:102C5000000270913102A0913202409134025091F1
:102C6000350291E07F3F09F090E0692FC6E08B17B5
:102C700009F445C04115510521F0AF3F21F020E096
:102C800003C021E001C0262F90E020FD35C0C89F81
:102C9000F001C99FF00D1124EF5FFD4F21812A1330
:102CA0002BC02081271328C02281211125C0238118
:102CB00034812417350710F421503109241B350BBA
:102CC000283C3105C8F4209136022F7020612093F2
:102CD000360226E0289FF001299FF00D1124EA5FBB
:102CE000FD4F80818F708061808381E392E00E943C
:102CF0004815CF910C94EA1501968770B8CFCF9103
:102D00000895AF92BF92CF92DF92EF92FF920F930E
:102D10001F93CF93DF93CDB7DEB761970FB6F894CB
:102D2000DEBF0FBECDBF8C0185E0F801DE011D9630
:102D300001900D928A95E1F7D8014C9111965C9122
:102D400011971296EC90309131026091320280918D
:102D5000340290913502009731F06F3F31F421E059
:102D60003F3F19F403C021E001C020E0B22FB17051
:102D7000BB2E20FD60C1F801C380D480A090330237
:102D8000AA2009F4EEC020913602C816D90628F010
:102D9000D601A81BB90BCD0104C0809590958C0D70
:102DA0009D1DFF24F394883C910580F0F12C207F39
:102DB00009F09CC07C2DD98AC88A6E2D89890E9411
:102DC000CB1581E392E00E9448152DC1822F807FB0
:102DD00009F054C0561314C0431312C0FE2CE11066
:102DE0000FC02F702061209336020E940B1681E3E2
:102DF00092E00E94481580913602F80185835CC1FB
:102E0000CD2831F05F3F31F481E04F3F19F403C02A
:102E100081E001C080E080FD03C081E08E2502C01A
:102E200080E090E0F82FF170FF2E80FF1CC08091B1
:102E3000FF012091000236E0821709F41AC190E0E8
:102E4000389FF001399FF00D1124EF5FFD4F618134
:102E5000561306C06081461303C06281E61203C0A8
:102E600001968770E9CFFE2CEE2009F425C18091F0
:102E70003602816080933602F12C1EC1561309C0C0
:102E8000431307C0E11005C080913602F801858325
:102E9000A4C04D875E878D859E850E94C6158823B8
:102EA00079F1EE2069F120913602822F82958F70A0
:102EB00090E0029774F080913102909132029887ED
:102EC0008F831986DB86CA862C87CE0107960E94DF
:102ED000481586E0F801A1E3B2E001900D928A95D1
:102EE000E1F70E9419160E940B160DC0561771F0DB
:102EF0004D875E878D859E850E94C61581111AC0FB
:102F0000C8010E944815FF24F394D6C04313F0CFA4
:102F1000E110EECF80913602F8018583C8010E944E
:102F2000481586E0E1E3F2E0DF011D928A95E9F7BA
:102F3000FA2CC2C0EE2021F320913602822F829516
:102F40008F7090E002972CF28091310290913202C2
:102F50009A8389831B82DD82CC822E83CE010196E7
:102F6000B6CFC816D90628F0F601E81BF90BCF0139
:102F700004C0809590958C0D9D1D883C910548F06E
:102F8000F12C7C2DD98AC88A6E2D89890E94CB1597
:102F90004AC0FE2CEE2009F4B3CF561333C04313BE
:102FA00031C02091360220FD24C0822F82958F707F
:102FB000482F50E041155105E1F0D80115962C93AA
:102FC00015974F30510549F08F5F982F9295907F5C
:102FD000822F8F70892B15968C93C8010E944815FB
:102FE00086E0F801A1E3B2E001900D928A95E1F745
:102FF0003DC086E0F801A1E3B2E001900D928A9510
:10300000E1F75AC04D875E878D859E850E94C61563
:1030100081115FCF80913602816080933602C801B2
:103020000E94481549C0E1E3F2E086E0DF011D920D
:103030008A95E9F71BC0EE2009F462CF4D875E87C1
:103040008D859E850E94C615F82E882309F458CFD9
:1030500086E0F801A1E3B2E001900D928A95E1F7D4
:1030600081E392E00E94BB110E9419160E940B1688
:1030700023C04D875E878D859E850E94421B292F28
:1030800022952F70223028F49F7039F0811105C0ED
:103090000BC0243028F49F7049F4805E883020F003
:1030A000C8010E944815BF2CFB2C06C0D8011596FC
:1030B0009C91907F91F7F8CF8F2D61960FB6F89481
:1030C000DEBF0FBECDBFDF91CF911F910F91FF905B
:1030D000EF90DF90CF90BF90AF9008951F93CF9364
:1030E000DF93CDB7DEB72C970FB6F894DEBF0FBED7
:1030F000CDBF4F83588769877A878B879C87CE019E
:1031000007960E9481168823D1F09F8188852A85A1
:103110003B85232B31F08F3F31F481E09F3F19F441
:1031200003C081E001C080E080FD47C04F81588529
:1031300069857A858B859C850E94DA153EC086E07C
:10314000FE013796DE01119601900D928A95E1F706
:10315000FF81E8856A857B856115710531F0EF3F58
:1031600031F481E0FF3F19F403C081E001C080E049
:1031700080FD23C02091000230E0C90101968770D4
:1031800099274091FF0150E084179507F1F1F983E9
:10319000EA837D836C8396E0929FD001939FB00D6C
:1031A0001124AF5FBD4FFE01319601900D929A95AB
:1031B000E1F7809300020E94EA1516E08091FF017A
:1031C00090910002891771F1189FC00111248F5F3F
:1031D0009D4F0E948116882329F1E091FF011E9FD7
:1031E000F0011124EF5FFD4F4081518162817381B5
:1031F000848195810E94DA158091FF0190E001960B
:10320000877099278093FF01D9CF0E949E15109255
:1032100000021092FF01E1E3F2E086E0DF011D927F
:103220008A95E9F72C960FB6F894DEBF0FBECDBF96
:10323000DF91CF911F910895EF92FF920F931F930B
:10324000CF93DF938C01892B09F46CC0F12CEE2411
:10325000E394E8012196F8018491843740F48430A6
:1032600008F051C0813081F0823019F15BC08537A0
:1032700009F444C0A8F19CE7980F903708F052C0B9
:103280008F770E94521241C00E5F1F4FFE01849142
:1032900090E2980F983050F48770FE2D01C0FF0F18
:1032A0008A95EAF78F2F0E94A71B14C00E94C111B4
:1032B0002DC00E5F1F4FFE01849190E2980F983051
:1032C00060F48770FE2D01C0FF0F8A95EAF78F2FFB
:1032D0000E94AD1B0E94D21B19C00E94521216C040
:1032E0000E5F1F4FFE01C491CC2381F08FE99FE058
:1032F0000197F1F700C00000C150F6CF0E5F1F4FDD
:10330000FE01F49003C00E94C1118E018F2D88230D
:1033100009F49FCFEFE9FFE03197F1F700C000001B
:103320008150F5CFDF91CF911F910F91FF90EF90DA
:103330000895089508950C949A190C949B190E946D
:103340009D1960937202709373028093740290933C
:1033500075020C9484150C949F190F931F93009180
:103360007202109173022091740230917502602BE9
:10337000712B822B932B1F910F910C949F190F93FC
:103380001F93009172021091730220917402309188
:10339000750260237123822393231F910F910C9454
:1033A0009F190F931F930091720210917302209145
:1033B00074023091750260277127822793271F912D
:1033C0000F910C949F190C949A190E94E319609321
:1033D0006E0270936F0280937002909371020C944E
:1033E000841560E070E0CB010C94E5190F931F93F6
:1033F00041E050E060E070E08A019B0104C0000FF2
:10340000111F221F331F8A95D2F7C901B8011F91DE
:103410000F910C94E5190F931F9341E050E060E089
:1034200070E004C0440F551F661F771F8A95D2F7BE
:1034300080916E0290916F02A0917002B091710222
:103440008A019B01082B192B2A2B3B2BC901B801A0
:103450001F910F910C94E5190F931F9341E050E0D9
:1034600060E070E004C0440F551F661F771F8A9507
:10347000D2F7409550956095709580916E0290912D
:103480006F02A0917002B09171028A019B01082322
:1034900019232A233B23C901B8011F910F910C94D2
:1034A000E5190F931F9341E050E060E070E004C025
:1034B000440F551F661F771F8A95D2F780916E02C1
:1034C00090916F02A0917002B09171028A019B01EC
:1034D000082719272A273B27C901B8011F910F91F7
:1034E0000C94E5190F931F9300916E0210916F02D7
:1034F0002091700230917102602B712B822B932BE3
:103500001F910F910C94E5190F931F9300916E0278
:1035100010916F022091700230917102602371232B
:10352000822393231F910F910C94E5190F931F93FE
:1035300000916E0210916F02209170023091710221
:1035400060277127822793271F910F910C94E5190B
:1035500008952EE0929F800D1124E82FE695E695C0
:10356000E695877051E001C0550F8A95EAF785E02E
:10357000E89FF0011124E95CFD4F20E030E070E0AD
:103580004081CB01022E02C0969587950A94E2F7FE
:103590008170819584278523842781932F5F3F4FF6
:1035A0002530310569F708952EE0929F800D112492
:1035B000682F669566956695982F977085E0689F49
:1035C000B001112440E050E080E0FB01E40FF51F62
:1035D000E95CFD4F208130E0092E02C03695279529
:1035E0000A94E2F721703327042E01C0220F0A94B7
:1035F000EAF7822B4F5F5F4F4530510531F7089551
:10360000BF92CF92DF92EF92FF920F931F93CF93CF
:10361000DF938C01C0906E02D0906F02E090700238
:10362000F09071028091720290917302A0917402E5
:10363000B0917502C82AD92AEA2AFB2ACFE1D0E044
:10364000D701C6010C2E04C0B695A795979587950E
:103650000A94D2F780FD04C0219790F7B12C07C0DF
:10366000BC2EB8018C2F0E9414090197A9F38B2D51
:10367000DF91CF911F910F91FF90EF90DF90CF904E
:10368000BF900895CF93DF93EC010E94001BBE0111
:103690000E941409DF91CF9108951F93CF93DF9378
:1036A000EB019091FE01992321F0CB010E94421B76
:1036B00013C0882349F0CB010E94001B182F682FEC
:1036C000CE010E94A91A04C0CB010E94D41A182F5F
:1036D000BE01812F0E941409DF91CF911F9108959F
:1036E00080917602859585958595089580917602DD
:1036F0008770089590917602977081E009F480E0D8
:10370000089580919A02089590919A02892B80934E
:103710009A020895809590919A02892380939A0243
:10372000089580939A02089510929A0208959091B4
:103730009902892B8093990208958095909199021E
:103740008923809399020895109299020895909187
:103750009802892B80939802089580959091980201
:103760008923809398020895109298020895809179
:103770007702089508950C94BA1B0C94BB1B90918A
:103780007702981721F0809377020C94BD1B08955F
:1037900080917702882329F01092770280E00C94C0
:1037A000BD1B0895E0910001F091010180919A0202
:1037B0008083E0910001F091010190818091990254
:1037C000892B8083E0910001F0910101908180912B
:1037D0009802892B808380917702882381F0E09181
:1037E0000001F09101019081892B8083809100017B
:1037F000909101010E94191D81110E94C81B8091A6
:103800000001909101010C9402100C94BA1B98E0F5
:10381000899F90011124262B209376020E940B1A77
:10382000809176028595859585950C94051C10925E
:10383000760280E00C94051C20917602809582230C
:1038400080937602982F977079F430E0482F082EF5
:10385000000C550B2417350739F08595859585950E
:103860000E942C1A0C94171C089590938501809344
:10387000840108958295982F937344E0949F90015A
:1038800011248C7C86958695282B822F8575880F30
:103890002A7A2695822B0895CF93DF93D92F0E9401
:1038A0003A1CC82F8D2F0E943A1C2C2F30E0322F4B
:1038B0002227A901482BCA01DF91CF91089580E00A
:1038C00090E00E94572B21E08C3E9E4F09F020E0B3
:1038D000822F089582E090E00C944F2B682F82E0B5
:1038E00090E00C945D2B83E090E00C944F2B682FBC
:1038F00083E090E00C945D2BCF9384E090E00E94F5
:103900004F2BC82F81E290E00E944F2B2C2F30E0EC
:10391000A901582BCA01CF910895CF93C92F682FC1
:1039200084E090E00E945D2B6C2F81E290E0CF91CB
:103930000C945D2B86E090E00C944F2B682F86E072
:1039400090E00C945D2BAB01BC018FE090E00C94F7
:103950006F2BAB01BC0183E190E00C946F2B60E016
:1039600070E0CB010C94A91C60E070E0CB010E94D8
:10397000A31C0C94AF1C6CEE7EEF80E090E00E94E4
:103980007B2B60E082E090E00E945D2B60E083E0B2
:1039900090E00E945D2B10927202109273021092BE
:1039A00074021092750260E084E090E00E945D2B4A
:1039B00060E081E290E00E945D2B60E085E090E0B5
:1039C0000E945D2B60E086E090E00E945D2B6FEF2F
:1039D00087E090E00E945D2B40E050E0BA0188E073
:1039E00090E00E946F2B60E08DE090E00E945D2BE4
:1039F00040E050E0BA0188E190E00E946F2B60E067
:103A000087E190E00E945D2B40E050E0BA018CE13C
:103A100090E00E946F2B60E080E290E00E945D2BBE
:103A20000C94B41C0C94BB1C682F8EE090E00C949A
:103A30005D2BFC01329680911101882331F0809139
:103A4000DA0287FF02C09EE101C096E080E091505B
:103A500028F021912223D9F38F5FF9CF08959C019B
:103A6000FC0132969FEF80E04191461789F09F3F1D
:103A700019F4411101C0982F8F5F8630A9F79F3F3D
:103A800039F0F901E90FF11D97FDFA956283089568
:103A900008959C012A5F3F4FFC014281461301C0FB
:103AA0001282019682179307B9F70895262F26955B
:103AB000269526952E3170F4FC01E20FF11D6770FA
:103AC00021E030E001C0220F6A95EAF78281282BBD
:103AD0002283089580919B0280FF0CC01F926F93F8
:103AE0008CE794E09F938F930E9461040F900F9056
:103AF0000F900F900895262F2695269526952E3106
:103B000078F4FC01E20FF11D677021E030E001C0A4
:103B1000220F6A95EAF7209582812823228308954F
:103B200080919B0280FF0CC01F926F938EE594E002
:103B30009F938F930E9461040F900F900F900F90AE
:103B4000089520911101222329F02091DA0227FD06
:103B50000C94561D0C942F1D20911101222329F045
:103B60002091DA0227FD0C947B1D0C94491D2091B5
:103B70001101FC013296222331F08091DA0287FF95
:103B800002C08EE101C086E0DF011D928A95E9F74F
:103B9000089508950C94C91DCF930E949D040E941E
:103BA000F6040E94CA1DC0E08C2F0E949005892B4C
:103BB00029F4CF5FC630C1F780E001C081E0CF912A
:103BC00008950C94C91D0C94E11D0E94E31D809181
:103BD000E002843061F110929C0220E488E190E0E0
:103BE0000FB6F894A895809360000FBE20936000F4
:103BF00080E00E94730D80E00E947E080E94E31D19
:103C000083B7817F846083BF83B7816083BF7894EB
:103C1000889583B78E7F83BF0FB6F894A89580915F
:103C20006000886180936000109260000FBE08956C
:103C30000C94C91D0E949E150E941C0C0E94F60F38
:103C40000E947E080C94181E1F920F920FB60F92BE
:103C500011248F939F93AF93BF9380919C02811106
:103C600013C08091D6029091D702A091D802B09152
:103C7000D9024196A11DB11D8093D6029093D7021F
:103C8000A093D802B093D902BF91AF919F918F9129
:103C90000F900FBE0F901F90189582E084BD93E0A7
:103CA00095BD9AEF97BD80936E0008952FB7F89455
:103CB0008091D6029091D702A091D802B091D902FA
:103CC0002FBF0895CF92DF92EF92FF920F931F9331
:103CD0002FB7F8944091D6025091D7026091D80244
:103CE0007091D9022FBF6A017B01EE24FF248C0161
:103CF00020E030E0C016D106E206F30610F4415091
:103D000051099A01281B390BC9011F910F91FF908E
:103D1000EF90DF90CF90089578941F920F920FB696
:103D20000F9211248F939F93AF93BF938091D602EC
:103D30009091D702A091D802B091D9020196A11D0D
:103D4000B11D8093D6029093D702A093D802B0936E
:103D5000D902BF91AF919F918F910F900FBE0F909D
:103D60001F90189581E08093E00080E28093D80056
:103D70001092C9008FE19EE40197F1F700C00000A6
:103D800087E090EBDC018093E9029093EA02A09334
:103D9000EB02B093EC029CE088E10FB6F894A89592
:103DA000809360000FBE90936000FFCFAF92BF92F0
:103DB000CF92DF92EF92FF920F931F93CF93C0E0C9
:103DC000CC24C394D12CE82EF12C8C2F0E9490058A
:103DD0005C0100E010E0C601002E02C0880F991FB0
:103DE0000A94E2F78A219B21892B31F40F5F1F4F40
:103DF0000E30110581F70AC0602F7C2F80E00E94F1
:103E0000F908E816F90691F781E004C0CF5FC630E3
:103E1000E1F680E0CF911F910F91FF90EF90DF903E
:103E2000CF90BF90AF900895CF93C82F8CE20E949F
:103E3000D61E882321F08C2FCF910C94D61E80E0C3
:103E4000CF910895CF930E945F1C811102C00E9400
:103E5000121D81EA94E00E94C803C5E6C15049F0F2
:103E60000E94F6048FE39CE90197F1F700C000007F
:103E7000F5CF8AE994E00E94C80389E20E94141FEA
:103E8000811120C18AE20E94141F81110E94121D1B
:103E900085E00E94141F81110E94B21E0E946A1CBC
:103EA00080939B0287E00E94141F8823A9F18BE175
:103EB0000E94141F882351F080919B0281FB2227CE
:103EC00020F991E0922790FB81F90EC08EE00E94CC
:103ED000141F882361F080919B0282FB222720F926
:103EE00091E0922790FB82F980939B0215C080E1BC
:103EF0000E94141F90919B02882341F093FB22277C
:103F000020F981E0822780FB93F904C0892F8095F6
:103F100080FB90F990939B0280919B020E946E1C03
:103F20000E947C1C9093DB028093DA0280EE0E9458
:103F3000141F882341F08091DA02982F909590FB0E
:103F400080F98093DA0289E30E94141F882359F0D4
:103F50008091DA0281FB222720F991E0922790FBE1
:103F600081F98093DA0282EE0E94141F882359F0AF
:103F70008091DA0282FB222720F991E0922790FBC0
:103F800082F98093DA0286EE0E94141F882359F08A
:103F90008091DA0283FB222720F991E0922790FB9F
:103FA00083F98093DA0283EE0E94141F882359F06C
:103FB0008091DA0284FB222720F991E0922790FB7E
:103FC00084F98093DA0285E30E94141F882359F054
:103FD0008091DA0285FB222720F991E0922790FB5D
:103FE00085F98093DA0281E30E94141F882359F037
:103FF0008091DA0286FB222720F991E0922790FB3C
:1040000086F98093DA0281E10E94141F882359F017
:104010008091DA0287FB222720F991E0922790FB1A
:1040200087F98093DA028091DA029091DB020E9494
:104030008D1C87E20E94141FC82F8EE10E94141F5E
:104040008111C2608FE10E94141F8111C46080E25F
:104050000E94141F8111C86081E20E94141F811107
:10406000C06182E20E94141F8111C06283E20E943B
:10407000141F8111C06484E20E94141F882311F070
:10408000C06802C0CC2329F08C2F0E94771C6C2FB3
:1040900003C00E94731C682F70E080E090E00E94D3
:1040A000AB198FE00E94141F882319F081E00E9451
:1040B000141D85E10E94141F882321F080E0CF9118
:1040C0000C94141DCF9108958091A10280FF0BC024
:1040D0006091050185E0689FB00111247595679591
:1040E000759567952BC081FF09C06091050185E03A
:1040F000689FB00111247595679520C082FF07C0A5
:104100006091050185E0689FB001112417C090916E
:10411000A0029923D1F060910401961788F72091AD
:10412000050185E0289F90011124929FA001939F93
:10413000500D112470E0CA010E94F92A60387105FF
:1041400040F46115710519F406C065E070E0862F32
:1041500008958FE7089581E008958091A10280FF7E
:1041600008C06091030170E0759567957595679536
:1041700021C081FF06C06091030170E075956795CD
:1041800019C082FF04C06091030170E010C09091DB
:10419000A002992399F0609102019617A0F78091EF
:1041A0000301899FC001112470E00E94F92A603840
:1041B000710540F46115710519F406C061E070E005
:1041C000862F08958FE7089581E00895803F21F4B8
:1041D0000E946420819504C0813F29F40E946420DC
:1041E0008093A5020895823F21F40E946420819566
:1041F00004C0833F29F40E9464208093A4020895A0
:10420000893F19F40E94AD2005C08A3F31F40E9415
:10421000AD2081958093A60208958B3F21F40E94E2
:10422000AD20819504C08C3F29F40E94AD2080937D
:10423000A7020895843F21F48091A302816017C0F2
:10424000853F21F48091A302826011C0863F21F452
:104250008091A30284600BC0873F21F48091A30268
:10426000886005C0883F31F48091A302806180930B
:10427000A30208958D3F21F48091A10281600BC0BB
:104280008E3F21F48091A102826005C08F3F29F406
:104290008091A10284608093A1020895803F39F447
:1042A0008091A50287FF6CC01092A50269C0813F72
:1042B00029F48091A5021816BCF362C09091A40263
:1042C000823F29F497FF5CC01092A40259C0833F3B
:1042D00019F41916CCF354C0893F41F48091A60219
:1042E00018160CF04DC01092A6024AC08A3F29F45D
:1042F0008091A60287FF44C0F6CF8B3F39F48091AE
:10430000A70287FF3DC01092A7023AC08C3F29F454
:104310008091A7021816BCF333C0843F21F480912A
:10432000A3028E7F17C0853F21F48091A3028D7F69
:1043300011C0863F21F48091A3028B7F0BC0873F81
:1043400021F48091A302877F05C0883F31F48091DA
:10435000A3028F7E8093A30213C08D3F21F480912E
:10436000A1028E7F0BC08E3F21F48091A1028D7F30
:1043700005C08F3F29F48091A1028B7F8093A10219
:104380008091A40281110EC08091A50281110AC002
:104390008091A602811106C08091A702811102C0FE
:1043A0001092A002089580919B0283FF7EC08DED44
:1043B00094E00E94C8038091A3021F928F9388ED1E
:1043C00094E09F938F930E94610486ED94E00E9495
:1043D000C8038091A402282F082E000C330B3F93B2
:1043E0008F9383ED94E09F938F930E94610481EDFE
:1043F00094E00E94C8038091A502282F082E000C8B
:10440000330B3F938F938EEC94E09F938F930E9496
:1044100061048CEC94E00E94C8038091A602282FCE
:10442000082E000C330B3F938F9389EC94E09F93FD
:104430008F930E94610487EC94E00E94C8038091EE
:10444000A702282F082E000C330B3F938F9384EC88
:1044500094E09F938F930E94610481EC94E00E940A
:10446000C8038091A0021F928F938EEB94E09F93DC
:104470008F930E9461048CEB94E00E94C8038091AA
:10448000A1021F928F9389EB94E09F938F930E94D8
:10449000610486EB94E00E94C8038DB79EB74C96EA
:1044A0000FB6F8949EBF0FBE8DBF82EA92E00E94C5
:1044B00057100E94561E90939F0280939E0208956B
:1044C0001F93CF93DF9380919E0290919F020E9451
:1044D000621EAC019091A002992321F02091060167
:1044E00030E006C020919D028AE0289F90011124AF
:1044F0004217530708F47BC08091A402C091A50223
:10450000D091A6021091A702811107C0C1116BC002
:10451000D11169C0111167C06AC09F3F19F09F5F38
:104520009093A002181624F40E9464208093A402A1
:104530008091A40287FF05C00E946420819580932A
:10454000A4021C1624F40E9464208093A50280918A
:10455000A50287FF05C00E94642081958093A50273
:104560003091A4023323E1F02091A5022223C1F06F
:1045700045EB3403C0011124992319F09093A40250
:1045800003C081E08093A40235EB2303C001112412
:10459000992319F09093A50203C081E08093A502AE
:1045A0001D1624F40E94AD208093A6028091A602DD
:1045B00087FF05C00E94AD2081958093A602111649
:1045C00024F40E94AD208093A7028091A70287FF68
:1045D00005C00E94AD2081958093A702DF91CF9105
:1045E0001F910C94D3219F3F09F099CFAACFDF915F
:1045F000CF911F910895E2EAF2E086E0DF011D927B
:104600008A95E9F71092A0021092A1020895809174
:10461000CB0208959FB7F8941092AA029FBF909181
:10462000E002943009F057C09091E9009F703091FA
:10463000EC00232F217030FD20E8922B23E0209303
:10464000E9002091EB0020FF43C02091EE0027FFFE
:104650003FC02091A802222321F02091E80025FFED
:1046600037C01092A80226E03091E80035FD15C051
:104670003091E002343061F53091EB0035FD28C017
:10468000215021F481E08093A80222C0EFE9FFE0ED
:104690003197F1F700C00000E7CF8093F1008091DF
:1046A000E80085FD0AC08091E80080FFFCCF809182
:1046B000E8008E778093E80006C08FB7F89421E079
:1046C0002093AA028FBF9F709093E90080E0089525
:1046D0009F709093E9008FEF0895CF93DF9300D000
:1046E0001F92CDB7DEB79091E002943019F589831F
:1046F0007B836A8382E08093E9008FEF9091E800EA
:10470000815095FD06C095ED9A95F1F70000811155
:10471000F5CF8091E80085FF0DC040E050E063E0F8
:1047200070E0CE0101960E942C268091E8008E77E1
:104730008093E8000F900F900F90DF91CF91089534
:10474000CF93DF93EC010E940F26823011F084306A
:1047500031F4BE0184E0DF91CF910C946D23DF91A1
:10476000CF910895BC016058710983E00C946D23CA
:10477000CF93DF93EC010E940F26823011F084303A
:10478000F9F482E08093E9008FEF9091E800815086
:1047900095FD06C095ED9A95F1F700008111F5CFD2
:1047A0008091E80085FF0CC040E050E066E070E0DA
:1047B000CE010E942C268091E8008E778093E8003D
:1047C000DF91CF910895CF93DF93EC010E940F26E4
:1047D000823011F08430D9F580911101882339F0AD
:1047E0008091DA0287FF03C060E282E002C068E0E5
:1047F00081E08093E9008FEF9091E800815095FD72
:1048000006C095ED9A95F1F700008111F5CF8091E2
:10481000E80085FF1CC080911101811105C040E0B6
:1048200050E068E070E003C070E040E050E0CE018E
:104830000E942C268091E8008E778093E80080E229
:10484000FE01ABEAB2E001900D928A95E1F7DF91AB
:10485000CF91089585E295E00E94C8038091DF0220
:10486000811109C00E94BD270E941A288091E20090
:1048700084608093E200089581E295E00E94C8037D
:104880001092DF0208958DE195E00C94C80389E150
:1048900095E00C94C80385E195E00E94C8030C9450
:1048A0001A1E2091A9022F5F822F62E30E94D92A4B
:1048B000992319F02093A90208951092A9028091DA
:1048C000AA02882371F18091E002843041F5809141
:1048D000E9008F702091EC00922F917020FD90E8FC
:1048E000892B93E09093E9009091EB0090FF14C026
:1048F0009091EE0097FF10C09091E80095FF03C0E3
:104900001092F100F9CF9091E80090FF05C09091CE
:10491000E8009E779093E8008F708093E9001092F2
:10492000AA02089542E061EC81E00E94362742E24B
:1049300061EC82E00E94362742E261EC83E00C9455
:1049400036278091E202833009F460C030F4813070
:1049500071F0823009F499C008958A3009F485C055
:104960008B3009F46BC0893009F0A7C020C080915A
:10497000E102813A09F0A1C08091E800877F80932D
:10498000E8008091E5029091E602892B21F460E233
:104990008BEA92E003C060E080E090E070E00E946B
:1049A00077268091E8008B778093E80008958091C6
:1049B000E102813209F081C08091E5029091E60226
:1049C000029708F07AC08091E800877F8093E80022
:1049D0008091E80082FD05C08091E0028111F8CF4E
:1049E0006CC02091F3008091F20090E0922B02972E
:1049F00029F48091F1008B7F813021F48091F100C6
:104A00008093CB028091E8008B7753C08091E102C4
:104A1000813A09F052C08091E5029091E602892B1B
:104A200009F04BC08091E800877F8093E800809177
:104A3000E80080FFFCCF8091110136C08091E10237
:104A40008132D9F58091E5029091E602892BA9F592
:104A50008091E800877F8093E8000E946B27809117
:104A6000E302809311010C949E158091E102813242
:104A700021F58091E800877F8093E8000E946B27F2
:104A80008091E4028093CC0208958091E102813A02
:104A9000A1F48091E800877F8093E8008091E8008E
:104AA00080FFFCCF8091CC028093F1008091E800E0
:104AB0008E778093E8000C946B27089584B7877FE6
:104AC00084BF0FB6F894A8958091600088618093A8
:104AD0006000109260000FBE90E080E80FB6F8947E
:104AE00080936100909361000FBE0E94A1100E940C
:104AF000BD270E941A288091E20084608093E20022
:104B00008AE093E20E94351C78940E94AE2A0E94AB
:104B1000A91087E091E00E94F10F84E095E00E94E7
:104B2000C8038091E002853089F480E095E00E941E
:104B3000C8030E94E51D8091DE02882391F30E9444
:104B4000CC1D882371F30E941626EBCF0E94DB1048
:104B5000E8CF0C94AB25292F332723303105C9F03A
:104B600060F42130310581F02230310509F047C071
:104B70008BE590E027E535E046C02132310511F1A3
:104B80002232310561F13BC082E190E022EB35E059
:104B90003AC099278130910561F040F0823091054B
:104BA00059F0039761F5E9E2F5E008C0E3E5F5E0C7
:104BB00005C0EFE3F5E002C0EFE2F5E0849190E09C
:104BC0009F0121C063307105D0F4660F771FFB0190
:104BD000E358FE4F2081318189E090E014C06330BA
:104BE000710568F4FB01EE0FFF1FE958FE4F2081AD
:104BF0003181FB01EC58FE4F808190E004C080E0E1
:104C000090E020E030E0FA01318320830895809124
:104C1000E002843011F081E0089582E008958091EF
:104C2000CD02811102C00C940726089580E189BD50
:104C300082E189BD09B400FEFDCF8091D8008F7D4F
:104C40008093D8008091E00082608093E0008091A2
:104C5000E00081FDFCCF0895CF92DF92EF92FF92AA
:104C60000F931F93CF93DF93EC018B017A010E9486
:104C70008A27811133C0E114F10439F0F7018081F2
:104C80009181081B190BC80FD91FC12CD12C0115FC
:104C9000110519F18091E80085FD16C08091E800AA
:104CA0008E778093E800E114F10449F0F7018081E8
:104CB0009181C80ED91ED182C08285E00FC00E94AA
:104CC0008A27882321F30AC089918093F10001503B
:104CD0001109FFEFCF1ADF0ADACF80E0DF91CF9121
:104CE0001F910F91FF90EF90DF90CF90089520914A
:104CF000E7023091E8022617370748F06115710581
:104D000039F42091E8002E772093E80001C0B90122
:104D1000FC0120E06115710579F18091E0028823A2
:104D2000F1F18530F1F18091E80083FD3CC0809184
:104D3000E80082FD2EC08091E80080FFEBCF20913B
:104D4000F3008091F20090E0922B6115710551F013
:104D50008830910538F421912093F1006150710958
:104D60000196F3CF21E0089709F020E08091E80058
:104D70008E778093E800CECF2111CFCF0AC08091EB
:104D8000E002882361F0853061F08091E80083FDC6
:104D90000AC08091E80082FFF2CF80E0089582E0AF
:104DA000089583E0089581E008952091E70230910D
:104DB000E8022617370748F06115710539F420918C
:104DC000E8002E772093E80001C0B901FC0120E043
:104DD0006115710591F18091E002882309F440C0CA
:104DE000853009F43FC08091E80083FD3DC080918B
:104DF000E80082FD2FC08091E80080FFE9CF20917C
:104E0000F3008091F20090E0922B6115710559F04A
:104E10008830910540F424912093F100319661503F
:104E200071090196F2CF21E0089709F020E0809106
:104E3000E8008E778093E800CBCF2111CCCF0AC059
:104E40008091E002882361F0853061F08091E80074
:104E500083FD0AC08091E80082FFF2CF80E00895D0
:104E600082E0089583E0089581E00895982F9730B7
:104E700068F59093E900981739F07091EC00209153
:104E8000ED005091F00003C0242F762F50E021FD5B
:104E900002C09F5FECCF3091EB003E7F3093EB0080
:104EA0003091ED003D7F3093ED003091EB003160AB
:104EB0003093EB007093EC002093ED005093F000E2
:104EC0002091EE0027FDE5CF80E008958F7080935C
:104ED000E90081E008958091E10287FF11C080918F
:104EE000E80082FD05C08091E0028111F8CF11C079
:104EF0008091E8008B770BC08091E002882349F015
:104F00008091E80080FFF8CF8091E8008E77809351
:104F1000E80008952091E4003091E50095E6409185
:104F2000EC00842F817040FF23C08091E80080FD59
:104F30001DC08091E002882399F0853099F080911E
:104F4000EB0085FD11C04091E4005091E50024176D
:104F5000350729F3915011F09A01E1CF84E00895CB
:104F600082E0089583E0089581E0089580E0089547
:104F70004091E80042FFDDCF08950E942B280E9457
:104F80003328E0EEF0E0808181608083E8EDF0E09E
:104F900080818F77808319BCA7EDB0E08C918E7FE4
:104FA0008C9380818F7E80831092DF0208950F930F
:104FB0001F93CF93DF930E942B280E943328C8EDC4
:104FC000D0E088818F778883888180688883888112
:104FD0008F7D888319BC1092E0021092DC0210923F
:104FE000DE021092DD0200EE10E0F80180818B7F7E
:104FF000808388818160888342E060E080E00E9455
:105000003627E1EEF0E080818E7F8083E2EEF0E0F3
:10501000808181608083808188608083F8018081C5
:105020008E7F8083888180618883DF91CF911F91FB
:105030000F910895E8EDF0E080818F7E8083E7EDA9
:10504000F0E080818160808384E082BF81E0809392
:10505000DF020C94D727E8EDF0E080818E7F80831B
:105060001092E20008951092DA001092E100089583
:105070001F920F920FB60F9211242F933F934F93CD
:105080005F936F937F938F939F93AF93BF93EF93B0
:10509000FF938091E10082FF0BC08091E20082FFCC
:1050A00007C08091E1008B7F8093E1000E94512432
:1050B0008091DA0080FF1FC08091D80080FF1BC064
:1050C0008091DA008E7F8093DA008091D90080FF92
:1050D0000DC080E189BD82E189BD09B400FEFDCF2C
:1050E00081E08093E0020E942A2405C019BC10923E
:1050F000E0020E943C248091E10080FF19C0809171
:10510000E20080FF15C08091E2008E7F8093E20074
:105110008091E20080618093E2008091D8008062FB
:105120008093D80019BC85E08093E0020E94472458
:105130008091E10084FF30C08091E20084FF2CC0A8
:1051400080E189BD82E189BD09B400FEFDCF809177
:10515000D8008F7D8093D8008091E1008F7E80936E
:10516000E1008091E2008F7E8093E2008091E20076
:1051700081608093E2008091DC02882311F084E05A
:1051800007C08091E30087FD02C081E001C083E099
:105190008093E0020E944B248091E10083FF29C0AC
:1051A0008091E20083FF25C08091E100877F80939A
:1051B000E10082E08093E0021092DC028091E10045
:1051C0008E7F8093E1008091E2008E7F8093E200E9
:1051D0008091E20080618093E20042E060E080E044
:1051E0000E9436278091F00088608093F0000E9432
:1051F0004324FF91EF91BF91AF919F918F917F9148
:105200006F915F914F913F912F910F900FBE0F9033
:105210001F9018951F920F920FB60F9211242F9383
:105220003F934F935F936F937F938F939F93AF932E
:10523000BF93CF93DF93EF93FF93C091E900CF70BB
:105240008091EC00D82FD17080FDD0E81092E90059
:105250008091F000877F8093F00078940E944E291F
:105260001092E9008091F00088608093F000CD2BCF
:10527000CF70C093E900FF91EF91DF91CF91BF9183
:10528000AF919F918F917F916F915F914F913F91DE
:105290002F910F900FBE0F901F9018951F93CF93D3
:1052A000DF93CDB7DEB7AA970FB6F894DEBF0FBE77
:1052B000CDBFE1EEF2E08091F100819322E0E93E82
:1052C000F207C9F70E94A1248091E80083FF2EC154
:1052D0008091E1029091E202492F50E04A3051055D
:1052E00008F024C1FA01EC58FF4F0C942F2B8038A2
:1052F00021F0823809F01AC108C08091DD02909136
:10530000DE02992389F082600FC08091E5028F70E0
:10531000873008F00BC18093E9008091EB0085FB9A
:10532000882780F91092E9009091E800977F909388
:10533000E8008093F1001092F100D1C0282F2D7F5A
:1053400009F0F4C0882319F0823061F0EFC0809139
:10535000E302813009F0EAC0933009F080E08093E5
:10536000DE022EC08091E30281112AC08091E50205
:105370008F702FEF280F263008F0D8C08093E900F7
:105380002091EB0020FF1CC0933021F48091EB00B2
:10539000806214C09091EB0090619093EB0021E04B
:1053A00030E0A90102C0440F551F8A95E2F74093EF
:1053B000EA001092EA008091EB0088608093EB0095
:1053C0001092E9008091E800877F8093E8000E94B6
:1053D0006B27ACC08111AAC01091E3021F778091A6
:1053E000E3008078812B8093E3008091E800877F41
:1053F0008093E8000E946B278091E80080FFFCCF3B
:105400008091E30080688093E300111102C082E084
:1054100001C083E08093E00289C08058823008F0A8
:1054200085C08091E3029091E4028C3D53E09507A2
:1054300079F583E08A838AE289834FB7F894DE01A5
:10544000139620E03EE051E2E32FF0E05093570046
:10545000E49120FF03C0E295EF703F5FEF708E2F65
:1054600090E0EA3010F0C79601C0C0968D939D93EE
:105470002F5F243149F74FBF8091E800877F8093E9
:10548000E8006AE270E0CE0101960E94772616C01D
:105490006091E5027091E602AE014F5F5F4F0E949E
:1054A000A925BC01892B09F441C09091E800977FA0
:1054B0009093E80089819A810E94D5268091E80026
:1054C0008B778093E80032C0803881F58091E800C6
:1054D000877F8093E8008091DC028093F1008091C7
:1054E000E8008E7772CF811121C08091E302909104
:1054F000E40299270297D4F48091E800877F809393
:10550000E8008091E3028093DC020E946B27809187
:10551000DC02811106C08091E30087FD02C081E0BA
:1055200001C084E08093E0020E9492248091E80010
:1055300083FF0AC08091E800877F8093E800809114
:10554000EB0080628093EB00AA960FB6F894DEBF62
:105550000FBECDBFDF91CF911F910895CF93809162
:10556000E0028823A1F0C091E900CF709091EC0097
:10557000892F817090FD80E8C82B1092E9008091FE
:10558000E80083FD0E944E29CF70C093E900CF91BF
:105590000895DB018F939F930E94442BBF91AF919D
:1055A000A29F800D911DA39F900DB29F900D11247D
:1055B0000895991B79E004C0991F961708F0961B6F
:1055C000881F7A95C9F780950895AA1BBB1B51E1E6
:1055D00007C0AA1FBB1FA617B70710F0A61BB70B63
:1055E000881F991F5A95A9F780959095BC01CD0108
:1055F000089597FB072E16F4009407D077FD09D085
:105600000E94E52A07FC05D03EF4909581959F4FB6
:105610000895709561957F4F0895A1E21A2EAA1BF7
:10562000BB1BFD010DC0AA1FBB1FEE1FFF1FA21752
:10563000B307E407F50720F0A21BB30BE40BF50B4F
:10564000661F771F881F991F1A9469F760957095D8
:10565000809590959B01AC01BD01CF010895EE0F9F
:10566000FF1F0590F491E02D0994A29FB001B39F14
:10567000C001A39F700D811D1124911DB29F700D5B
:10568000811D1124911D08950E94352BA59F900D19
:10569000B49F900DA49F800D911D11240895F99938
:1056A000FECF92BD81BDF89A992780B50895A8E1F3
:1056B000B0E042E050E00C94832B262FF999FECF06
:1056C00092BD81BDF89A019700B4021639F01FBA55
:1056D00020BD0FB6F894FA9AF99A0FBE0895039672
:1056E000272F0E945E2B0E945D2B252F0E945E2B90
:1056F000242F0C945E2B0196272F0E945E2B0C9476
:105700005D2BDC01CB01FC01F999FECF06C0F2BD97
:10571000E1BDF89A319600B40D9241505040B8F76F
:065720000895F894FFCF8C
:10572600780228083C07140723E323B823B223A0F2
:105736002301E200E900EA00B500B600B700CD009B
:105746008301CC008A0192019401210223022402E2
:105756002502260227022A02B300B4006F00700059
:10576600818283E200E900EA00B500B600B700CD09
:10577600008301CC008A01920194012102230224B4
:10578600022502260227022A02B300B4006F007027
:105796000081828340C022A606E605C4056905820B
:0457A600059B05005A
:00000001FF
